{
  "contractName": "AxolotlImperium",
  "abi": [
    {
      "inputs": [],
      "stateMutability": "nonpayable",
      "type": "constructor"
    },
    {
      "anonymous": false,
      "inputs": [
        {
          "indexed": true,
          "internalType": "address",
          "name": "owner",
          "type": "address"
        },
        {
          "indexed": true,
          "internalType": "address",
          "name": "approved",
          "type": "address"
        },
        {
          "indexed": true,
          "internalType": "uint256",
          "name": "tokenId",
          "type": "uint256"
        }
      ],
      "name": "Approval",
      "type": "event"
    },
    {
      "anonymous": false,
      "inputs": [
        {
          "indexed": true,
          "internalType": "address",
          "name": "owner",
          "type": "address"
        },
        {
          "indexed": true,
          "internalType": "address",
          "name": "operator",
          "type": "address"
        },
        {
          "indexed": false,
          "internalType": "bool",
          "name": "approved",
          "type": "bool"
        }
      ],
      "name": "ApprovalForAll",
      "type": "event"
    },
    {
      "anonymous": false,
      "inputs": [
        {
          "indexed": true,
          "internalType": "address",
          "name": "previousOwner",
          "type": "address"
        },
        {
          "indexed": true,
          "internalType": "address",
          "name": "newOwner",
          "type": "address"
        }
      ],
      "name": "OwnershipTransferred",
      "type": "event"
    },
    {
      "anonymous": false,
      "inputs": [
        {
          "indexed": true,
          "internalType": "address",
          "name": "from",
          "type": "address"
        },
        {
          "indexed": true,
          "internalType": "address",
          "name": "to",
          "type": "address"
        },
        {
          "indexed": true,
          "internalType": "uint256",
          "name": "tokenId",
          "type": "uint256"
        }
      ],
      "name": "Transfer",
      "type": "event"
    },
    {
      "inputs": [
        {
          "internalType": "address",
          "name": "to",
          "type": "address"
        },
        {
          "internalType": "uint256",
          "name": "tokenId",
          "type": "uint256"
        }
      ],
      "name": "approve",
      "outputs": [],
      "stateMutability": "nonpayable",
      "type": "function"
    },
    {
      "inputs": [
        {
          "internalType": "address",
          "name": "owner",
          "type": "address"
        }
      ],
      "name": "balanceOf",
      "outputs": [
        {
          "internalType": "uint256",
          "name": "",
          "type": "uint256"
        }
      ],
      "stateMutability": "view",
      "type": "function"
    },
    {
      "inputs": [
        {
          "internalType": "uint256",
          "name": "tokenId",
          "type": "uint256"
        }
      ],
      "name": "getApproved",
      "outputs": [
        {
          "internalType": "address",
          "name": "",
          "type": "address"
        }
      ],
      "stateMutability": "view",
      "type": "function"
    },
    {
      "inputs": [
        {
          "internalType": "address",
          "name": "owner",
          "type": "address"
        },
        {
          "internalType": "address",
          "name": "operator",
          "type": "address"
        }
      ],
      "name": "isApprovedForAll",
      "outputs": [
        {
          "internalType": "bool",
          "name": "",
          "type": "bool"
        }
      ],
      "stateMutability": "view",
      "type": "function"
    },
    {
      "inputs": [],
      "name": "name",
      "outputs": [
        {
          "internalType": "string",
          "name": "",
          "type": "string"
        }
      ],
      "stateMutability": "view",
      "type": "function"
    },
    {
      "inputs": [],
      "name": "owner",
      "outputs": [
        {
          "internalType": "address",
          "name": "",
          "type": "address"
        }
      ],
      "stateMutability": "view",
      "type": "function"
    },
    {
      "inputs": [
        {
          "internalType": "uint256",
          "name": "tokenId",
          "type": "uint256"
        }
      ],
      "name": "ownerOf",
      "outputs": [
        {
          "internalType": "address",
          "name": "",
          "type": "address"
        }
      ],
      "stateMutability": "view",
      "type": "function"
    },
    {
      "inputs": [],
      "name": "renounceOwnership",
      "outputs": [],
      "stateMutability": "nonpayable",
      "type": "function"
    },
    {
      "inputs": [
        {
          "internalType": "address",
          "name": "from",
          "type": "address"
        },
        {
          "internalType": "address",
          "name": "to",
          "type": "address"
        },
        {
          "internalType": "uint256",
          "name": "tokenId",
          "type": "uint256"
        }
      ],
      "name": "safeTransferFrom",
      "outputs": [],
      "stateMutability": "nonpayable",
      "type": "function"
    },
    {
      "inputs": [
        {
          "internalType": "address",
          "name": "from",
          "type": "address"
        },
        {
          "internalType": "address",
          "name": "to",
          "type": "address"
        },
        {
          "internalType": "uint256",
          "name": "tokenId",
          "type": "uint256"
        },
        {
          "internalType": "bytes",
          "name": "_data",
          "type": "bytes"
        }
      ],
      "name": "safeTransferFrom",
      "outputs": [],
      "stateMutability": "nonpayable",
      "type": "function"
    },
    {
      "inputs": [
        {
          "internalType": "address",
          "name": "operator",
          "type": "address"
        },
        {
          "internalType": "bool",
          "name": "approved",
          "type": "bool"
        }
      ],
      "name": "setApprovalForAll",
      "outputs": [],
      "stateMutability": "nonpayable",
      "type": "function"
    },
    {
      "inputs": [
        {
          "internalType": "bytes4",
          "name": "interfaceId",
          "type": "bytes4"
        }
      ],
      "name": "supportsInterface",
      "outputs": [
        {
          "internalType": "bool",
          "name": "",
          "type": "bool"
        }
      ],
      "stateMutability": "view",
      "type": "function"
    },
    {
      "inputs": [],
      "name": "symbol",
      "outputs": [
        {
          "internalType": "string",
          "name": "",
          "type": "string"
        }
      ],
      "stateMutability": "view",
      "type": "function"
    },
    {
      "inputs": [
        {
          "internalType": "uint256",
          "name": "tokenId",
          "type": "uint256"
        }
      ],
      "name": "tokenURI",
      "outputs": [
        {
          "internalType": "string",
          "name": "",
          "type": "string"
        }
      ],
      "stateMutability": "view",
      "type": "function"
    },
    {
      "inputs": [
        {
          "internalType": "address",
          "name": "from",
          "type": "address"
        },
        {
          "internalType": "address",
          "name": "to",
          "type": "address"
        },
        {
          "internalType": "uint256",
          "name": "tokenId",
          "type": "uint256"
        }
      ],
      "name": "transferFrom",
      "outputs": [],
      "stateMutability": "nonpayable",
      "type": "function"
    },
    {
      "inputs": [
        {
          "internalType": "address",
          "name": "newOwner",
          "type": "address"
        }
      ],
      "name": "transferOwnership",
      "outputs": [],
      "stateMutability": "nonpayable",
      "type": "function"
    },
    {
      "inputs": [
        {
          "internalType": "string",
          "name": "baseURI",
          "type": "string"
        }
      ],
      "name": "setBaseURI",
      "outputs": [],
      "stateMutability": "nonpayable",
      "type": "function"
    }
  ],
  "bytecode": "0x60806040523480156200001157600080fd5b506040518060400160405280600f81526020017f41786f6c6f746c496d70657269756d00000000000000000000000000000000008152506040518060400160405280600481526020017f41584f4c000000000000000000000000000000000000000000000000000000008152506200009e62000092620000d860201b60201c565b620000e060201b60201c565b8160019080519060200190620000b6929190620001a4565b508060029080519060200190620000cf929190620001a4565b505050620002b9565b600033905090565b60008060009054906101000a900473ffffffffffffffffffffffffffffffffffffffff169050816000806101000a81548173ffffffffffffffffffffffffffffffffffffffff021916908373ffffffffffffffffffffffffffffffffffffffff1602179055508173ffffffffffffffffffffffffffffffffffffffff168173ffffffffffffffffffffffffffffffffffffffff167f8be0079c531659141344cd1fd0a4f28419497f9722a3daafe3b4186f6b6457e060405160405180910390a35050565b828054620001b29062000254565b90600052602060002090601f016020900481019282620001d6576000855562000222565b82601f10620001f157805160ff191683800117855562000222565b8280016001018555821562000222579182015b828111156200022157825182559160200191906001019062000204565b5b50905062000231919062000235565b5090565b5b808211156200025057600081600090555060010162000236565b5090565b600060028204905060018216806200026d57607f821691505b602082108114156200028457620002836200028a565b5b50919050565b7f4e487b7100000000000000000000000000000000000000000000000000000000600052602260045260246000fd5b61291080620002c96000396000f3fe608060405234801561001057600080fd5b506004361061010b5760003560e01c806370a08231116100a2578063a22cb46511610071578063a22cb465146102a4578063b88d4fde146102c0578063c87b56dd146102dc578063e985e9c51461030c578063f2fde38b1461033c5761010b565b806370a082311461022e578063715018a61461025e5780638da5cb5b1461026857806395d89b41146102865761010b565b806323b872dd116100de57806323b872dd146101aa57806342842e0e146101c657806355f804b3146101e25780636352211e146101fe5761010b565b806301ffc9a71461011057806306fdde0314610140578063081812fc1461015e578063095ea7b31461018e575b600080fd5b61012a60048036038101906101259190611a7a565b610358565b6040516101379190611e7b565b60405180910390f35b61014861043a565b6040516101559190611e96565b60405180910390f35b61017860048036038101906101739190611b0d565b6104cc565b6040516101859190611e14565b60405180910390f35b6101a860048036038101906101a39190611a3e565b610551565b005b6101c460048036038101906101bf9190611938565b610669565b005b6101e060048036038101906101db9190611938565b6106c9565b005b6101fc60048036038101906101f79190611acc565b6106e9565b005b61021860048036038101906102139190611b0d565b610771565b6040516102259190611e14565b60405180910390f35b610248600480360381019061024391906118d3565b610823565b6040516102559190612078565b60405180910390f35b6102666108db565b005b610270610963565b60405161027d9190611e14565b60405180910390f35b61028e61098c565b60405161029b9190611e96565b60405180910390f35b6102be60048036038101906102b99190611a02565b610a1e565b005b6102da60048036038101906102d59190611987565b610a34565b005b6102f660048036038101906102f19190611b0d565b610a96565b6040516103039190611e96565b60405180910390f35b610326600480360381019061032191906118fc565b610b3d565b6040516103339190611e7b565b60405180910390f35b610356600480360381019061035191906118d3565b610bd1565b005b60007f80ac58cd000000000000000000000000000000000000000000000000000000007bffffffffffffffffffffffffffffffffffffffffffffffffffffffff1916827bffffffffffffffffffffffffffffffffffffffffffffffffffffffff1916148061042357507f5b5e139f000000000000000000000000000000000000000000000000000000007bffffffffffffffffffffffffffffffffffffffffffffffffffffffff1916827bffffffffffffffffffffffffffffffffffffffffffffffffffffffff1916145b80610433575061043282610cc9565b5b9050919050565b606060018054610449906122ce565b80601f0160208091040260200160405190810160405280929190818152602001828054610475906122ce565b80156104c25780601f10610497576101008083540402835291602001916104c2565b820191906000526020600020905b8154815290600101906020018083116104a557829003601f168201915b5050505050905090565b60006104d782610d33565b610516576040517f08c379a000000000000000000000000000000000000000000000000000000000815260040161050d90611fb8565b60405180910390fd5b6005600083815260200190815260200160002060009054906101000a900473ffffffffffffffffffffffffffffffffffffffff169050919050565b600061055c82610771565b90508073ffffffffffffffffffffffffffffffffffffffff168373ffffffffffffffffffffffffffffffffffffffff1614156105cd576040517f08c379a00000000000000000000000000000000000000000000000000000000081526004016105c490612038565b60405180910390fd5b8073ffffffffffffffffffffffffffffffffffffffff166105ec610d9f565b73ffffffffffffffffffffffffffffffffffffffff16148061061b575061061a81610615610d9f565b610b3d565b5b61065a576040517f08c379a000000000000000000000000000000000000000000000000000000000815260040161065190611f58565b60405180910390fd5b6106648383610da7565b505050565b61067a610674610d9f565b82610e60565b6106b9576040517f08c379a00000000000000000000000000000000000000000000000000000000081526004016106b090612058565b60405180910390fd5b6106c4838383610f3e565b505050565b6106e483838360405180602001604052806000815250610a34565b505050565b6106f1610d9f565b73ffffffffffffffffffffffffffffffffffffffff1661070f610963565b73ffffffffffffffffffffffffffffffffffffffff1614610765576040517f08c379a000000000000000000000000000000000000000000000000000000000815260040161075c90611fd8565b60405180910390fd5b61076e816106e9565b50565b6000806003600084815260200190815260200160002060009054906101000a900473ffffffffffffffffffffffffffffffffffffffff169050600073ffffffffffffffffffffffffffffffffffffffff168173ffffffffffffffffffffffffffffffffffffffff16141561081a576040517f08c379a000000000000000000000000000000000000000000000000000000000815260040161081190611f98565b60405180910390fd5b80915050919050565b60008073ffffffffffffffffffffffffffffffffffffffff168273ffffffffffffffffffffffffffffffffffffffff161415610894576040517f08c379a000000000000000000000000000000000000000000000000000000000815260040161088b90611f78565b60405180910390fd5b600460008373ffffffffffffffffffffffffffffffffffffffff1673ffffffffffffffffffffffffffffffffffffffff168152602001908152602001600020549050919050565b6108e3610d9f565b73ffffffffffffffffffffffffffffffffffffffff16610901610963565b73ffffffffffffffffffffffffffffffffffffffff1614610957576040517f08c379a000000000000000000000000000000000000000000000000000000000815260040161094e90611fd8565b60405180910390fd5b610961600061119a565b565b60008060009054906101000a900473ffffffffffffffffffffffffffffffffffffffff16905090565b60606002805461099b906122ce565b80601f01602080910402602001604051908101604052809291908181526020018280546109c7906122ce565b8015610a145780601f106109e957610100808354040283529160200191610a14565b820191906000526020600020905b8154815290600101906020018083116109f757829003601f168201915b5050505050905090565b610a30610a29610d9f565b838361125e565b5050565b610a45610a3f610d9f565b83610e60565b610a84576040517f08c379a0000000000000000000000000000000000000000000000000000000008152600401610a7b90612058565b60405180910390fd5b610a90848484846113cb565b50505050565b6060610aa182610d33565b610ae0576040517f08c379a0000000000000000000000000000000000000000000000000000000008152600401610ad790612018565b60405180910390fd5b6000610aea611427565b90506000815111610b0a5760405180602001604052806000815250610b35565b80610b148461143e565b604051602001610b25929190611df0565b6040516020818303038152906040525b915050919050565b6000600660008473ffffffffffffffffffffffffffffffffffffffff1673ffffffffffffffffffffffffffffffffffffffff16815260200190815260200160002060008373ffffffffffffffffffffffffffffffffffffffff1673ffffffffffffffffffffffffffffffffffffffff16815260200190815260200160002060009054906101000a900460ff16905092915050565b610bd9610d9f565b73ffffffffffffffffffffffffffffffffffffffff16610bf7610963565b73ffffffffffffffffffffffffffffffffffffffff1614610c4d576040517f08c379a0000000000000000000000000000000000000000000000000000000008152600401610c4490611fd8565b60405180910390fd5b600073ffffffffffffffffffffffffffffffffffffffff168173ffffffffffffffffffffffffffffffffffffffff161415610cbd576040517f08c379a0000000000000000000000000000000000000000000000000000000008152600401610cb490611ed8565b60405180910390fd5b610cc68161119a565b50565b60007f01ffc9a7000000000000000000000000000000000000000000000000000000007bffffffffffffffffffffffffffffffffffffffffffffffffffffffff1916827bffffffffffffffffffffffffffffffffffffffffffffffffffffffff1916149050919050565b60008073ffffffffffffffffffffffffffffffffffffffff166003600084815260200190815260200160002060009054906101000a900473ffffffffffffffffffffffffffffffffffffffff1673ffffffffffffffffffffffffffffffffffffffff1614159050919050565b600033905090565b816005600083815260200190815260200160002060006101000a81548173ffffffffffffffffffffffffffffffffffffffff021916908373ffffffffffffffffffffffffffffffffffffffff160217905550808273ffffffffffffffffffffffffffffffffffffffff16610e1a83610771565b73ffffffffffffffffffffffffffffffffffffffff167f8c5be1e5ebec7d5bd14f71427d1e84f3dd0314c0f7b2291e5b200ac8c7c3b92560405160405180910390a45050565b6000610e6b82610d33565b610eaa576040517f08c379a0000000000000000000000000000000000000000000000000000000008152600401610ea190611f38565b60405180910390fd5b6000610eb583610771565b90508073ffffffffffffffffffffffffffffffffffffffff168473ffffffffffffffffffffffffffffffffffffffff161480610f2457508373ffffffffffffffffffffffffffffffffffffffff16610f0c846104cc565b73ffffffffffffffffffffffffffffffffffffffff16145b80610f355750610f348185610b3d565b5b91505092915050565b8273ffffffffffffffffffffffffffffffffffffffff16610f5e82610771565b73ffffffffffffffffffffffffffffffffffffffff1614610fb4576040517f08c379a0000000000000000000000000000000000000000000000000000000008152600401610fab90611ff8565b60405180910390fd5b600073ffffffffffffffffffffffffffffffffffffffff168273ffffffffffffffffffffffffffffffffffffffff161415611024576040517f08c379a000000000000000000000000000000000000000000000000000000000815260040161101b90611ef8565b60405180910390fd5b61102f8383836115eb565b61103a600082610da7565b6001600460008573ffffffffffffffffffffffffffffffffffffffff1673ffffffffffffffffffffffffffffffffffffffff168152602001908152602001600020600082825461108a91906121e4565b925050819055506001600460008473ffffffffffffffffffffffffffffffffffffffff1673ffffffffffffffffffffffffffffffffffffffff16815260200190815260200160002060008282546110e1919061215d565b92505081905550816003600083815260200190815260200160002060006101000a81548173ffffffffffffffffffffffffffffffffffffffff021916908373ffffffffffffffffffffffffffffffffffffffff160217905550808273ffffffffffffffffffffffffffffffffffffffff168473ffffffffffffffffffffffffffffffffffffffff167fddf252ad1be2c89b69c2b068fc378daa952ba7f163c4a11628f55a4df523b3ef60405160405180910390a4505050565b60008060009054906101000a900473ffffffffffffffffffffffffffffffffffffffff169050816000806101000a81548173ffffffffffffffffffffffffffffffffffffffff021916908373ffffffffffffffffffffffffffffffffffffffff1602179055508173ffffffffffffffffffffffffffffffffffffffff168173ffffffffffffffffffffffffffffffffffffffff167f8be0079c531659141344cd1fd0a4f28419497f9722a3daafe3b4186f6b6457e060405160405180910390a35050565b8173ffffffffffffffffffffffffffffffffffffffff168373ffffffffffffffffffffffffffffffffffffffff1614156112cd576040517f08c379a00000000000000000000000000000000000000000000000000000000081526004016112c490611f18565b60405180910390fd5b80600660008573ffffffffffffffffffffffffffffffffffffffff1673ffffffffffffffffffffffffffffffffffffffff16815260200190815260200160002060008473ffffffffffffffffffffffffffffffffffffffff1673ffffffffffffffffffffffffffffffffffffffff16815260200190815260200160002060006101000a81548160ff0219169083151502179055508173ffffffffffffffffffffffffffffffffffffffff168373ffffffffffffffffffffffffffffffffffffffff167f17307eab39ab6107e8899845ad3d59bd9653f200f220920489ca2b5937696c31836040516113be9190611e7b565b60405180910390a3505050565b6113d6848484610f3e565b6113e2848484846115f0565b611421576040517f08c379a000000000000000000000000000000000000000000000000000000000815260040161141890611eb8565b60405180910390fd5b50505050565b606060405180602001604052806000815250905090565b60606000821415611486576040518060400160405280600181526020017f300000000000000000000000000000000000000000000000000000000000000081525090506115e6565b600082905060005b600082146114b85780806114a190612331565b915050600a826114b191906121b3565b915061148e565b60008167ffffffffffffffff8111156114fa577f4e487b7100000000000000000000000000000000000000000000000000000000600052604160045260246000fd5b6040519080825280601f01601f19166020018201604052801561152c5781602001600182028036833780820191505090505b5090505b600085146115df5760018261154591906121e4565b9150600a85611554919061237a565b6030611560919061215d565b60f81b81838151811061159c577f4e487b7100000000000000000000000000000000000000000000000000000000600052603260045260246000fd5b60200101907effffffffffffffffffffffffffffffffffffffffffffffffffffffffffffff1916908160001a905350600a856115d891906121b3565b9450611530565b8093505050505b919050565b505050565b60006116118473ffffffffffffffffffffffffffffffffffffffff16611787565b1561177a578373ffffffffffffffffffffffffffffffffffffffff1663150b7a0261163a610d9f565b8786866040518563ffffffff1660e01b815260040161165c9493929190611e2f565b602060405180830381600087803b15801561167657600080fd5b505af19250505080156116a757506040513d601f19601f820116820180604052508101906116a49190611aa3565b60015b61172a573d80600081146116d7576040519150601f19603f3d011682016040523d82523d6000602084013e6116dc565b606091505b50600081511415611722576040517f08c379a000000000000000000000000000000000000000000000000000000000815260040161171990611eb8565b60405180910390fd5b805181602001fd5b63150b7a0260e01b7bffffffffffffffffffffffffffffffffffffffffffffffffffffffff1916817bffffffffffffffffffffffffffffffffffffffffffffffffffffffff19161491505061177f565b600190505b949350505050565b600080823b905060008111915050919050565b60006117ad6117a8846120b8565b612093565b9050828152602081018484840111156117c557600080fd5b6117d084828561228c565b509392505050565b60006117eb6117e6846120e9565b612093565b90508281526020810184848401111561180357600080fd5b61180e84828561228c565b509392505050565b6000813590506118258161287e565b92915050565b60008135905061183a81612895565b92915050565b60008135905061184f816128ac565b92915050565b600081519050611864816128ac565b92915050565b600082601f83011261187b57600080fd5b813561188b84826020860161179a565b91505092915050565b600082601f8301126118a557600080fd5b81356118b58482602086016117d8565b91505092915050565b6000813590506118cd816128c3565b92915050565b6000602082840312156118e557600080fd5b60006118f384828501611816565b91505092915050565b6000806040838503121561190f57600080fd5b600061191d85828601611816565b925050602061192e85828601611816565b9150509250929050565b60008060006060848603121561194d57600080fd5b600061195b86828701611816565b935050602061196c86828701611816565b925050604061197d868287016118be565b9150509250925092565b6000806000806080858703121561199d57600080fd5b60006119ab87828801611816565b94505060206119bc87828801611816565b93505060406119cd878288016118be565b925050606085013567ffffffffffffffff8111156119ea57600080fd5b6119f68782880161186a565b91505092959194509250565b60008060408385031215611a1557600080fd5b6000611a2385828601611816565b9250506020611a348582860161182b565b9150509250929050565b60008060408385031215611a5157600080fd5b6000611a5f85828601611816565b9250506020611a70858286016118be565b9150509250929050565b600060208284031215611a8c57600080fd5b6000611a9a84828501611840565b91505092915050565b600060208284031215611ab557600080fd5b6000611ac384828501611855565b91505092915050565b600060208284031215611ade57600080fd5b600082013567ffffffffffffffff811115611af857600080fd5b611b0484828501611894565b91505092915050565b600060208284031215611b1f57600080fd5b6000611b2d848285016118be565b91505092915050565b611b3f81612218565b82525050565b611b4e8161222a565b82525050565b6000611b5f8261211a565b611b698185612130565b9350611b7981856020860161229b565b611b8281612467565b840191505092915050565b6000611b9882612125565b611ba28185612141565b9350611bb281856020860161229b565b611bbb81612467565b840191505092915050565b6000611bd182612125565b611bdb8185612152565b9350611beb81856020860161229b565b80840191505092915050565b6000611c04603283612141565b9150611c0f82612478565b604082019050919050565b6000611c27602683612141565b9150611c32826124c7565b604082019050919050565b6000611c4a602483612141565b9150611c5582612516565b604082019050919050565b6000611c6d601983612141565b9150611c7882612565565b602082019050919050565b6000611c90602c83612141565b9150611c9b8261258e565b604082019050919050565b6000611cb3603883612141565b9150611cbe826125dd565b604082019050919050565b6000611cd6602a83612141565b9150611ce18261262c565b604082019050919050565b6000611cf9602983612141565b9150611d048261267b565b604082019050919050565b6000611d1c602c83612141565b9150611d27826126ca565b604082019050919050565b6000611d3f602083612141565b9150611d4a82612719565b602082019050919050565b6000611d62602983612141565b9150611d6d82612742565b604082019050919050565b6000611d85602f83612141565b9150611d9082612791565b604082019050919050565b6000611da8602183612141565b9150611db3826127e0565b604082019050919050565b6000611dcb603183612141565b9150611dd68261282f565b604082019050919050565b611dea81612282565b82525050565b6000611dfc8285611bc6565b9150611e088284611bc6565b91508190509392505050565b6000602082019050611e296000830184611b36565b92915050565b6000608082019050611e446000830187611b36565b611e516020830186611b36565b611e5e6040830185611de1565b8181036060830152611e708184611b54565b905095945050505050565b6000602082019050611e906000830184611b45565b92915050565b60006020820190508181036000830152611eb08184611b8d565b905092915050565b60006020820190508181036000830152611ed181611bf7565b9050919050565b60006020820190508181036000830152611ef181611c1a565b9050919050565b60006020820190508181036000830152611f1181611c3d565b9050919050565b60006020820190508181036000830152611f3181611c60565b9050919050565b60006020820190508181036000830152611f5181611c83565b9050919050565b60006020820190508181036000830152611f7181611ca6565b9050919050565b60006020820190508181036000830152611f9181611cc9565b9050919050565b60006020820190508181036000830152611fb181611cec565b9050919050565b60006020820190508181036000830152611fd181611d0f565b9050919050565b60006020820190508181036000830152611ff181611d32565b9050919050565b6000602082019050818103600083015261201181611d55565b9050919050565b6000602082019050818103600083015261203181611d78565b9050919050565b6000602082019050818103600083015261205181611d9b565b9050919050565b6000602082019050818103600083015261207181611dbe565b9050919050565b600060208201905061208d6000830184611de1565b92915050565b600061209d6120ae565b90506120a98282612300565b919050565b6000604051905090565b600067ffffffffffffffff8211156120d3576120d2612438565b5b6120dc82612467565b9050602081019050919050565b600067ffffffffffffffff82111561210457612103612438565b5b61210d82612467565b9050602081019050919050565b600081519050919050565b600081519050919050565b600082825260208201905092915050565b600082825260208201905092915050565b600081905092915050565b600061216882612282565b915061217383612282565b9250827fffffffffffffffffffffffffffffffffffffffffffffffffffffffffffffffff038211156121a8576121a76123ab565b5b828201905092915050565b60006121be82612282565b91506121c983612282565b9250826121d9576121d86123da565b5b828204905092915050565b60006121ef82612282565b91506121fa83612282565b92508282101561220d5761220c6123ab565b5b828203905092915050565b600061222382612262565b9050919050565b60008115159050919050565b60007fffffffff0000000000000000000000000000000000000000000000000000000082169050919050565b600073ffffffffffffffffffffffffffffffffffffffff82169050919050565b6000819050919050565b82818337600083830152505050565b60005b838110156122b957808201518184015260208101905061229e565b838111156122c8576000848401525b50505050565b600060028204905060018216806122e657607f821691505b602082108114156122fa576122f9612409565b5b50919050565b61230982612467565b810181811067ffffffffffffffff8211171561232857612327612438565b5b80604052505050565b600061233c82612282565b91507fffffffffffffffffffffffffffffffffffffffffffffffffffffffffffffffff82141561236f5761236e6123ab565b5b600182019050919050565b600061238582612282565b915061239083612282565b9250826123a05761239f6123da565b5b828206905092915050565b7f4e487b7100000000000000000000000000000000000000000000000000000000600052601160045260246000fd5b7f4e487b7100000000000000000000000000000000000000000000000000000000600052601260045260246000fd5b7f4e487b7100000000000000000000000000000000000000000000000000000000600052602260045260246000fd5b7f4e487b7100000000000000000000000000000000000000000000000000000000600052604160045260246000fd5b6000601f19601f8301169050919050565b7f4552433732313a207472616e7366657220746f206e6f6e20455243373231526560008201527f63656976657220696d706c656d656e7465720000000000000000000000000000602082015250565b7f4f776e61626c653a206e6577206f776e657220697320746865207a65726f206160008201527f6464726573730000000000000000000000000000000000000000000000000000602082015250565b7f4552433732313a207472616e7366657220746f20746865207a65726f2061646460008201527f7265737300000000000000000000000000000000000000000000000000000000602082015250565b7f4552433732313a20617070726f766520746f2063616c6c657200000000000000600082015250565b7f4552433732313a206f70657261746f7220717565727920666f72206e6f6e657860008201527f697374656e7420746f6b656e0000000000000000000000000000000000000000602082015250565b7f4552433732313a20617070726f76652063616c6c6572206973206e6f74206f7760008201527f6e6572206e6f7220617070726f76656420666f7220616c6c0000000000000000602082015250565b7f4552433732313a2062616c616e636520717565727920666f7220746865207a6560008201527f726f206164647265737300000000000000000000000000000000000000000000602082015250565b7f4552433732313a206f776e657220717565727920666f72206e6f6e657869737460008201527f656e7420746f6b656e0000000000000000000000000000000000000000000000602082015250565b7f4552433732313a20617070726f76656420717565727920666f72206e6f6e657860008201527f697374656e7420746f6b656e0000000000000000000000000000000000000000602082015250565b7f4f776e61626c653a2063616c6c6572206973206e6f7420746865206f776e6572600082015250565b7f4552433732313a207472616e73666572206f6620746f6b656e2074686174206960008201527f73206e6f74206f776e0000000000000000000000000000000000000000000000602082015250565b7f4552433732314d657461646174613a2055524920717565727920666f72206e6f60008201527f6e6578697374656e7420746f6b656e0000000000000000000000000000000000602082015250565b7f4552433732313a20617070726f76616c20746f2063757272656e74206f776e6560008201527f7200000000000000000000000000000000000000000000000000000000000000602082015250565b7f4552433732313a207472616e736665722063616c6c6572206973206e6f74206f60008201527f776e6572206e6f7220617070726f766564000000000000000000000000000000602082015250565b61288781612218565b811461289257600080fd5b50565b61289e8161222a565b81146128a957600080fd5b50565b6128b581612236565b81146128c057600080fd5b50565b6128cc81612282565b81146128d757600080fd5b5056fea26469706673582212209a678f5d7c36183a7b47736b8caaa8cbf77fece299916357c2539d8ed3eef53964736f6c63430008030033",
  "immutableReferences": {},
  "source": "// SPDX-License-Identifier: MIT\npragma solidity >=0.4.22 <0.9.0;\n\nimport \"@openzeppelin/contracts/token/ERC721/ERC721.sol\";\nimport \"@openzeppelin/contracts/access/Ownable.sol\";\n\ncontract AxolotlImperium is Ownable, ERC721 {\n  struct Metadata {\n            uint8 color;\n            string tittle;\n        }\n\n        mapping (uint256 => Metadata) id_to_date;\n\n        constructor() ERC721 (\"AxolotlImperium\", \"AXOL\") {\n        }\n\n        function setBaseURI (string memory baseURI) public onlyOwner {\n            setBaseURI(baseURI);\n    }\n}\n",
  "sourcePath": "D:\\Documentos\\Personal\\NFT\\Axolotls Imperium\\Generador\\MyFirstSolidityProject\\contracts\\AxolotlImperium.sol",
  "compiler": {
    "name": "solc",
    "version": "0.8.3+commit.8d00100c.Emscripten.clang"
  },
  "schemaVersion": "3.4.3",
  "updatedAt": "2021-12-09T01:41:28.334Z",
  "devdoc": {
    "kind": "dev",
    "methods": {
      "approve(address,uint256)": {
        "details": "See {IERC721-approve}."
      },
      "balanceOf(address)": {
        "details": "See {IERC721-balanceOf}."
      },
      "getApproved(uint256)": {
        "details": "See {IERC721-getApproved}."
      },
      "isApprovedForAll(address,address)": {
        "details": "See {IERC721-isApprovedForAll}."
      },
      "name()": {
        "details": "See {IERC721Metadata-name}."
      },
      "owner()": {
        "details": "Returns the address of the current owner."
      },
      "ownerOf(uint256)": {
        "details": "See {IERC721-ownerOf}."
      },
      "renounceOwnership()": {
        "details": "Leaves the contract without owner. It will not be possible to call `onlyOwner` functions anymore. Can only be called by the current owner. NOTE: Renouncing ownership will leave the contract without an owner, thereby removing any functionality that is only available to the owner."
      },
      "safeTransferFrom(address,address,uint256)": {
        "details": "See {IERC721-safeTransferFrom}."
      },
      "safeTransferFrom(address,address,uint256,bytes)": {
        "details": "See {IERC721-safeTransferFrom}."
      },
      "setApprovalForAll(address,bool)": {
        "details": "See {IERC721-setApprovalForAll}."
      },
      "supportsInterface(bytes4)": {
        "details": "See {IERC165-supportsInterface}."
      },
      "symbol()": {
        "details": "See {IERC721Metadata-symbol}."
      },
      "tokenURI(uint256)": {
        "details": "See {IERC721Metadata-tokenURI}."
      },
      "transferFrom(address,address,uint256)": {
        "details": "See {IERC721-transferFrom}."
      },
      "transferOwnership(address)": {
        "details": "Transfers ownership of the contract to a new account (`newOwner`). Can only be called by the current owner."
      }
    },
    "version": 1
  },
  "userdoc": {
    "kind": "user",
    "methods": {},
    "version": 1
  }
}